:100000000C94C6000C94EE000C94EE000C94EE00E0
:100010000C94EE000C94EE000C94EE000C94EE00A8
:100020000C94EE000C94EE000C94F3080C949F07D3
:100030000C94EE000C94EE000C94EE000C94EE0088
:100040000C94EE000C94EE000C94EE000C94EE0078
:100050000C94EE000C94EE000C94EE000C94960CB4
:100060000C94EE000C94600A0C948D0A0C94EE0033
:100070000C94EE000C94EE000C94EE000C94EE0048
:100080000C94EE000C94EE000C94EE000C94EE0038
:100090000C94FF030C94EE000C94EE000C94EE0014
:1000A0000C94EE000C94EE000C94EE001201000291
:1000B000EF020140F41B0492000101020301556E9E
:1000C0006B6E6F776E0055534220494F20426F612F
:1000D00072640004030904080B0002020201000913
:1000E00004000001020200000524001001052401A3
:1000F00001010424020605240600010705810310FE
:10010000004009040100020A000000070502024045
:100110000000070583024000000000000200090FF4
:100120000000030401000C000000000000000000BB
:100130000000000000000004080201104080401090
:1001400020408040800802040180402010020110FD
:10015000801020404020040404040403040502022B
:100160000202040302020202060606060606040450
:10017000020202040400000000250028002B002ECB
:100180000031000006014403BD0A810C11241FBE8A
:10019000CFEFDAE0DEBFCDBF11E0A0E0B1E0E6E7EF
:1001A000FCE102C005900D92A036B107D9F723E01B
:1001B000A0E6B1E001C01D92A833B207E1F710E05C
:1001C000C6ECD0E004C02197FE010E94240EC23C80
:1001D000D107C9F70E941D050C942A0E0C9400004B
:1001E00040E051EE60E070E08EED92E00E947B0C0A
:1001F00081E691E00E94380281E691E00E944F0181
:1002000063E171E081E691E00C9426020F9300E037
:1002100022E040E167E281E691E00E942F010F9128
:1002200008958EED92E00E94B60B8EED92E00E9452
:10023000B90B892BD1F380916001811107C081E650
:1002400091E00E949F0181E0809360018EED92E039
:100250000E94C90B682F81E691E00C941802FC0102
:1002600061834583268388E0878308950F931F93D6
:10027000CF938C01C62FFC0161818BE691E00E9437
:100280002403F80167816C2B8BE691E00E94BE028B
:100290008BE691E0CF911F910F910C944103FC01EB
:1002A00088E0878360E0CF010C9436011F93CF93E1
:1002B000DF93182FD92FC62F64600E94360181E08A
:1002C00090E00E94580D6C2F6B7F812F9D2F0E9414
:1002D000360182E390E0DF91CF911F910C94580D8D
:1002E0001F93CF93DF93D82FC92F162F0E9436016B
:1002F000612F8D2F9C2FDF91CF911F910C94560170
:100300000F931F93CF93DF938C01C62FD1E0411140
:1003100001C0D0E06C2F607F6D2BC8010E9470017E
:1003200080E1C89FB00111246D2BC801DF91CF91EE
:100330001F910F910C94700140E00C948001CF93B9
:10034000DF93EC0161E00E949C0180ED97E00E9448
:10035000580D18861986DF91CF910895CF93DF93BA
:10036000EC0162E00E949C0180ED97E00E94580D34
:1003700018861986DF91CF9108950F931F93CF931D
:10038000DF93EC01162F042F8E81681770F4E62F8F
:10039000F0E0EE0FFF1FEE5DFE4F6081640F6068BE
:1003A000CE010E949C0118870987DF91CF911F9190
:1003B0000F910895FC01608586818150990B681723
:1003C000190634F46F5F60874185CF010C94BD013D
:1003D0000895FC01118640E060850C94BD01FC018C
:1003E0006381862F846083836C60CF010C949C01B1
:1003F0001F93CF93DF93EC01162F68858E816817CA
:1004000098F44985CE010E94BD0141E0612FCE01E3
:100410000E94800189858F5F89879D81891720F0DF
:1004200088858F5F88871986DF91CF911F91089506
:100430006C3031F06D3031F06A3031F40C94DA0107
:100440000C949F010C94E9010C94F8010F931F93F5
:10045000CF93DF938C01EB016991662321F0C801F2
:100460000E941802F9CFDF91CF911F910F9108954B
:10047000CF93DF93EC018BE691E00E941A031A827E
:100480008E81823010F098E09A839881992329F028
:10049000813019F48A8184608A8362E370E080E0AD
:1004A00090E00E94110D6F81CE010E94360168EE2E
:1004B00073E080E090E00E94110D60E3CE010E94A5
:1004C000700184E991E10E94580D60E3CE010E9421
:1004D000700184E991E10E94580D60E3CE010E9411
:1004E000700186E990E00E94580D60E2CE010E9402
:1004F00070016A816062CE010E949C0184E08B835E
:10050000CE010E94EF01CE010E949F0182E08C8308
:1005100066E0CE010E949C01CE01DF91CF910C9448
:10052000AE0190E080E0089580919B0190919C0144
:10053000891B990B089590919C0180919B012FEF4D
:100540003FEF981748F4E92FF0E0E356FE4F208183
:1005500030E09F5F90939C01C9010895E0919C0158
:1005600080919B01E81730F4F0E0E356FE4F808164
:1005700090E008958FEF9FEF08950895CF93DF9354
:100580000F92CDB7DEB7FC01698380917701882394
:10059000F1F080917801803250F081E090E0938317
:1005A000828390E080E00F90DF91CF910895809159
:1005B0007901E82FF0E0E658FE4F998190838F5F34
:1005C000809379018093780181E090E0ECCF61E045
:1005D000CE0101960E94C803F7CFCF92DF92EF922F
:1005E000FF920F931F93CF93DF937C01CB018A017E
:1005F00020917701222389F0EB016B01C40ED51EF7
:10060000CC15DD0569F06991D701ED91FC91019060
:10061000F081E02DC7010995F3CF642F0E94C80334
:10062000C801DF91CF911F910F91FF90EF90DF9064
:10063000CF90089510929C0110929B011092790125
:10064000109278010C94550381E0809377016093B8
:100650009A01109279011092780108950F93062F54
:1006600021E0409178016AE771E080919A010E944F
:1006700073031092790110927801109277010F9113
:10068000089561E00C942E03EBE6F1E013821282F0
:1006900088EE93E0A0E0B0E084839583A683B783DF
:1006A0008EE291E091838083089510922A0281E086
:1006B000809328021092270261E082E00E94F60DEA
:1006C00061E083E00E94F60DE9EBF0E080818E7F2F
:1006D000808380818D7F808388E48093B80085E467
:1006E0008093BC0008950F93982F81E0413208F069
:1006F00044C080912A028111FCCF32E030932A025B
:10070000009328023FEF3093BD0110920202409304
:100710000102562FA3E0B2E0FB013E2F351B341738
:1007200070F11092290230912902990F932B909326
:10073000290290912702913029F510922702909179
:1007400029029093BB009091BC0093FDF8CF95ECEB
:100750009093BC00222321F090912A029230D1F391
:100760009091BD019F3F49F08091BD01803261F0C1
:100770008091BD01803351F084E00F910895319153
:100780003D93CBCF95EEE4CF82E0F7CF83E0F5CF7A
:100790002091DF01260F3327331F21323105ECF47E
:1007A00020912A02FC0190E080E0243069F082E090
:1007B0000895A091DF012191AC014F515E4FA40F2C
:1007C000B52FB11D2C930196861798F38091DF0108
:1007D000680F6093DF0180E0089581E0089585ED62
:1007E0008093BC008091BC0084FDFCCF10922A0253
:1007F000089585EC8093BC0010922A0208951F9200
:100800000F920FB60F9211242F933F934F935F9344
:100810006F937F938F939F93AF93BF93EF93FF93C8
:100820009091B900892F887F803509F4C3C008F002
:1008300044C0803309F4B9C098F5883101F1D0F48F
:10084000883009F4AAC0803109F4A7C0882309F4CC
:10085000F0C0FF91EF91BF91AF919F918F917F91E8
:100860006F915F914F913F912F910F900FBE0F901D
:100870001F901895803209F498C0883251F79091F2
:10088000020280910102981790F5E091020281E046
:100890008E0F80930202F0E0ED5FFD4F80817FC0FC
:1008A000803409F493C0883409F481C0883389F610
:1008B0008093BD010E94F903CCCF803A09F4A0C017
:1008C000C0F5803809F48AC058F5803619F1E0F493
:1008D000883509F0BECFE091020281E08E0F80934F
:1008E00002028091BB00F0E0ED5FFD4F80838091BC
:1008F000280281115CC081E08093270284EA809302
:10090000BC0010922A02A5CF803721F0987E98363D
:1009100009F09FCF83E080932A021092BE0141C06C
:10092000803909F45BC0987E983809F092CF85E849
:1009300039C0883BD9F058F5883A19F0803B09F066
:1009400088CF84E080932A021092E0011092DF01A8
:10095000E0912502F091260209958091DF01811135
:1009600005C081E08093DF011092E101E091E00198
:1009700081E08E0F8093E001F0E0EF51FE4F808127
:100980008093BB009091E0018091DF0123C0907FB4
:10099000903C09F05ECF85ECB2CF80912902809324
:1009A000BB0085EC8093BC0054CF8093BD010E94B6
:1009B000EF034FCFE091020281E08E0F809302029D
:1009C0008091BB00F0E0ED5FFD4F808390910202CB
:1009D00080910102981708F0AACFE3CF8091BE0161
:1009E000803208F0A4CFE091BE0181E08E0F8093A9
:1009F000BE018091BB00F0E0E154FE4F8083D1CF77
:100A00000E94F9038091BE01803230F4E091BE0172
:100A1000F0E0E154FE4F10826091BE0170E0E09181
:100A20002302F09124028FEB91E009951092BE0110
:100A300010CF1092BD01BBCF08950E94630D0E949C
:100A40001C058BE292E00E9471090E94F000CAEC42
:100A5000D9E00E9411012097E1F30E94CA09F9CF61
:100A6000CF92DF92EF92FF920F931F93CF93DF937A
:100A70007C016A0110E000E00C151D0581F0EB011E
:100A8000D701ED91FC910190F081E02D6991C701B2
:100A90000995892B21F00F5F1F4FBE01EDCFC801D3
:100AA000DF91CF911F910F91FF90EF90DF90CF904A
:100AB0000895615030F0FC018091F1008193CF01E5
:100AC000F8CF289884E680933302089540912E024F
:100AD00050912F0220912C0230912D024217530782
:100AE000B4F49091E8009570E1F39091E80092FDE4
:100AF00019C08093F10080912E0290912F020196EF
:100B00008F739927892B19F48EEF8093E8008091D9
:100B10002E0290912F02019690932F0280932E0225
:100B200081E0089580E00895EF92FF920F931F9364
:100B3000CF93DF93F82E192FE62E042F81E0860F36
:100B4000880F0E94660583E00E946605CF2DD12F95
:100B5000EC0EFD2EF11CCE15DF05B9F007FF13C01A
:100B6000FE0184910E946605182F80E00E946605B0
:100B7000812321968111EFCFDF91CF911F910F91AA
:100B8000FF90EF9008958881EDCF81E0F5CF8091BF
:100B9000D70081608093D70080EA8093D80089B520
:100BA000806189BD89B5826089BD09B400FEFDCF31
:100BB00061E070E080E090E00E94110D8091D8002B
:100BC0008F7C80618093D8008091E000807F80934B
:100BD000E0000895CF93DF930F92CDB7DEB719826F
:100BE000CE0101960E94EC0B0E94760BBE016F5F56
:100BF0007F4F0E94EA0A89810F90DF91CF9108957B
:100C00002FB7FC012083F89467706093E900089582
:100C1000CF93DF930F92CDB7DEB7682FCE01019649
:100C20000E9400068091F20099819FBF0F90DF9192
:100C3000CF910895EF92FF920F931F93CF93DF937D
:100C40000F92CDB7DEB77B018A01909132029923D2
:100C500071F157FD2CC0682FCE0101960E9400064D
:100C60008091F20090E0081719070CF4C801282FB2
:100C700044E6215048F0F701289840933302309120
:100C8000F10031937F01F5CF009739F02091F20008
:100C9000211103C02BE62093E80029812FBF0F907C
:100CA000DF91CF911F910F91FF90EF9008958FEFFB
:100CB0009FEFF5CFCF93DF930F92CDB7DEB741E033
:100CC00050E0BE016F5F7F4F0E941A06019731F41A
:100CD000898190E00F90DF91CF9108958FEF9FEF82
:100CE000F9CFCF93DF930F92CDB7DEB7682FCE0148
:100CF00001960E9400069091E800892F807295FF6E
:100D000004C09091F20080E4891B99819FBF0F90ED
:100D1000DF91CF9108955F926F927F928F929F9211
:100D2000AF92BF92CF92DF92EF92FF920F931F93F9
:100D3000CF93DF930F92CDB7DEB7082F6B01B42EA0
:100D4000A52E80913202811113C08FEF9FEF0F907B
:100D5000DF91CF911F910F91FF90EF90DF90CF9097
:100D6000BF90AF909F908F907F906F905F9008950D
:100D70008091300280FF05C08091E0008260809306
:100D8000E000EB2CFA2C912C8AEF882E802F8072B9
:100D9000682E802F8074582E9AE3792EE114F10486
:100DA00019F4992009F460C0802F0E947106182F51
:100DB00081110AC08A94882041F261E070E080E0ED
:100DC00090E00E94110DEACF8E151F0411F00CF077
:100DD0001E2D602FCE0101960E9400068091E80032
:100DE00085FD03C089818FBFD9CF212F30E0E21A62
:100DF000F30A662029F0115060F01092F100FBCF49
:100E00009C2D8D2D07FF10C0F601115040F4C20E2D
:100E1000D31E992099F07092E800912CE3CF849131
:100E20008093F1003196F1CF115088F3E92FF82F1C
:100E300081918093F1009E2F8F2FF6CF8091E80053
:100E400085FD08C07092E80099249394E114F104A0
:100E500049F2E3CFE114F10409F0C4CF552009F4BD
:100E6000C1CF7092E800BECF5D9884E680933402D3
:100E70008B2D9A2D6CCF1092E90010922F021092B8
:100E80002E0290932D0280932C020895CF92DF9230
:100E9000FF920F931F93CF93DF93F82E8A01EB01FC
:100EA0006B01C40ED51ECC15DD0559F0F7FE12C03E
:100EB000FE0184910E94660521968111F4CF0FEF07
:100EC0001FEFC801DF91CF911F910F91FF90DF902D
:100ED000CF9008958881EECFBF92CF92DF92EF92AC
:100EE000FF920F931F93CF93DF936C018B01EB0164
:100EF0009BEFB92E2097C1F07E01C134D1051CF0C3
:100F000080E4E82EF12C8091E80082FFFCCFC8013C
:100F10008C1B9D0B6E2D8C0D9D1D0E945905B09252
:100F2000E800CE19DF09E6CFC801DF91CF911F910C
:100F30000F91FF90EF90DF90CF90BF9008951F9298
:100F40000F920FB60F921124EF92FF920F931F93FF
:100F50002F933F934F935F936F937F938F939F93C1
:100F6000AF93BF93EF93FF93CF93DF93CDB7DEB7EC
:100F70006C97DEBFCDBF1092E9008091E80083FF3F
:100F800021C068E0CE0145960E94590582EF80930A
:100F9000E8008D8987FF33C09091E80090FFFCCF77
:100FA000982F907609F001C19E8991112FC0803849
:100FB00051F5809131028093F1001092F1008EEF93
:100FC0008093E8006C960FB6F894DEBF0FBECDBFDD
:100FD000DF91CF91FF91EF91BF91AF919F918F9151
:100FE0007F916F915F914F913F912F911F910F9141
:100FF000FF90EF900F900FBE0F901F9018959EEFEF
:101000009093E800CDCF1092F100D7CF2F89388D83
:10101000913059F48111D3CF2130310581F680917F
:1010200031028D7F80933102CACF933049F4811110
:10103000C6CF2130310519F6809131028260F2CF9E
:10104000953049F48091E80080FFFCCF8F8980685B
:101050008093E300B4CF963009F078C0188DEB8C04
:10106000FC8C123039F590E080E00E943B070E9432
:10107000EA051F8299E099831A8391E09E8390EAA2
:1010800098879AEF998720912E0230912F02275F3F
:101090003F4F3C832B838D83C7010E943B0749E070
:1010A00050E0BE016F5F7F4F80E00E9446070E94C4
:1010B000EA0585CFC7010E943B070E94760BBE015F
:1010C0006B5E7F4F0E94140B009731F00CF077CFCE
:1010D00081E28093EB0076CF113061F11330C1F7DC
:1010E0008F89882381F1823049F440E86CE086ECF6
:1010F00090E00E949405882359F361CF813029F450
:1011000040E867E08EEB90E0F4CF833009F70E946F
:10111000760B8E010F5F1F4FB8010E94350BF8014F
:1011200001900020E9F73197BF01601B710B40E08F
:10113000C801DFCF6CEA70E0FB01449150E080E829
:101140000E9446073CCF63ED70E0F6CF973009F47C
:10115000BFCF983021F481E08093F10030CF9930F7
:1011600009F02DCF837009F0B3CFE1E0F1E081E029
:1011700031E096E32191211109C08EE78093EA00C6
:101180001092EA008F898093320219CF8093E90090
:101190003093EB00DF0111972C912093EC0090939A
:1011A000ED008F5F873031F7E8CF8B8D9C8D0E94EB
:1011B0003B07898D811105C0CE0145960E94F70B32
:1011C0009ACF0E94760BBE016B5E7F4F0E94560B3A
:1011D00092CF8093E9008091F200882319F08AE38E
:1011E0008093E80008951F920F920FB60F9211247A
:1011F0002F933F934F935F936F937F938F939F931F
:10120000AF93BF93CF93EF93FF93C091E100809191
:10121000E100837F8093E100C3FF0FC01092E900DB
:1012200081E08093EB001092EC0082E38093ED006C
:101230001092320288E08093F000C2FF1BC083E06E
:101240000E94E90880913402882341F080913402A1
:10125000815080933402811101C05D9A80913302E4
:10126000882341F0809133028150809333028111B1
:1012700001C0289AC4FF23C08091E2008E7E816065
:101280008093E2008091E1008F7E8093E100809165
:1012900030028E7E806180933002FF91EF91CF917A
:1012A000BF91AF919F918F917F916F915F914F917E
:1012B0003F912F910F900FBE0F901F901895C0FF78
:1012C000ECCF8091E2008E7E80618093E20080917D
:1012D000E1008E7E8093E100809130028E7E8160FD
:1012E000DACF1092320210923102109230020E9434
:1012F000C7058091E1008E7E8093E1008DE08093B0
:10130000E200559A209AEEEFFFE7859194918B3F8A
:101310009C4D19F481E080932E030895FC01818D8A
:10132000228D90E0805C9F4F821B91098F739927DB
:101330000895FC01918D828D981731F0828DE80F10
:10134000F11D858D90E008958FEF9FEF0895FC01CA
:10135000918D828D981761F0A28DAE0FBF2FB11DB8
:101360005D968C91928D9F5F9F73928F90E0089510
:101370008FEF9FEF0895FC01538D448D252F30E0B2
:10138000842F90E0821B930B541710F0CF96089592
:101390000197089583EB9AE0892B49F080E090E073
:1013A000892B29F00E94B30A81110C940000089542
:1013B000FC01A48DA80FB92FB11DA35ABF4F2C91CA
:1013C000848D90E001968F739927848FA689B789C1
:1013D0002C93A089B1898C9180648C93938D848D9A
:1013E000981306C00288F389E02D80818F7D808369
:1013F0000895CF93DF93EC01888D8823B9F0AA89F3
:10140000BB89E889F9898C9185FD03C0808186FDBF
:101410000DC00FB607FCF7CF8C9185FFF2CF80810E
:1014200085FFEDCFCE010E94D809E9CFDF91CF91A2
:101430000895EF92FF920F931F93CF93DF93EC01E8
:10144000F62E81E0888F9B8D8C8D981316C0E889CD
:10145000F989808185FF11C0EE89FF896083E88961
:10146000F98980818064808381E090E0DF91CF9171
:101470001F910F91FF90EF9008950B8D10E00F5F7B
:101480001F4F0F731127E02E8C8D8E110CC00FB6DD
:1014900007FCFACFE889F989808185FFF5CFCE0175
:1014A0000E94D809F1CFEB8DEC0FFD2FF11DE35A0F
:1014B000FF4FF0820B8FEA89FB8980818062D3CF56
:1014C0002F932FB72F938F939F93EF93FF93E091D9
:1014D0004502F09146028081E0914B02F0914C026E
:1014E00082FD19C0908180914E028F5F8F73209191
:1014F0004F02821741F0E0914E02F0E0EB5CFD4FAD
:10150000958F80934E02FF91EF919F918F912F9134
:101510002FBF2F9118958081F6CF1F920F920FB693
:101520000F9211242F933F934F935F936F937F9369
:101530008F939F93AF93BF93EF93FF9385E392E0D5
:101540000E94D809FF91EF91BF91AF919F918F9128
:101550007F916F915F914F913F912F910F900FBEAF
:101560000F901F90189585E392E00E948E099C01D0
:1015700081E0232B09F480E00895E5E3F2E0138293
:10158000128288EE93E0A0E0B0E084839583A68386
:10159000B78380E491E0918380838DEC90E0958720
:1015A00084878CEC90E09787868788EC90E0918B1D
:1015B000808B89EC90E0938B828B8AEC90E0958B0A
:1015C000848B8EEC90E0978B868B118E128E138E0F
:1015D000148E0895EF92FF920F931F93CF93DF9392
:1015E000F62EE72EFC01C281D38110E000E02097A7
:1015F00099F0E881F9810280F381E02D6F2D7E2D35
:10160000CE01099597FD06C0080F191F0884D985DA
:10161000C02DEDCF0FEF1FEFC801DF91CF911F91CC
:101620000F91FF90EF9008950F931F93CF93DF9347
:10163000162F072FFC01C281D381209779F0E88112
:10164000F9810480F581E02D612F702FCE0109957D
:10165000009731F40884D985C02DEFCF90E080E069
:10166000DF91CF911F910F9108950F931F93CF9307
:10167000DF93EB01DC0112960D911C910115110510
:1016800079F0D801ED91FC910680F781E02DBE0143
:10169000C8010995C80FD11DF80100851185EECF4D
:1016A0001882DF91CF911F910F9108950F931F938F
:1016B000CF93DF93162F072FFC01C281D381209790
:1016C00079F0E881F9810190F081E02D612F702F90
:1016D000CE010995811105C00884D985C02DEFCFB1
:1016E00080E0DF91CF911F910F9108958091D202F8
:1016F00081110DC082E08093DA0284E08093DB02E6
:101700001092DD021092DC0281E08093D2028AED19
:1017100092E00895CF93DF930F92CDB7DEB7DC014F
:101720006983ED91FC910280F381E02D41E050E06E
:10173000BE016F5F7F4F09950F90DF91CF910895A4
:10174000CF93DF93EC018C859D8597FF05C082E0E8
:101750000E945A069D878C878C859D85DF91CF914D
:10176000089583E00E94710690E0089583E00C9450
:10177000E908FC018485958597FD06C082E00E94FA
:10178000080690E00196089582E00E94080690E025
:101790000895FC018485958597FD05C02FEF3FEFE7
:1017A00035872487089582E00C945A06CF93DF93FF
:1017B000EC0180911201882331F083E00E948B06B6
:1017C0001816190634F081E090E09B838A8380E04C
:1017D00090E0DF91CF910895FC0180818E5F80833E
:1017E00042E450E067ED70E080E80C944607FC01AD
:1017F00081819081913A61F4813209F073C047E0B0
:1018000050E06BE071E080E00E94460781E00895BF
:10181000913209F067C0833269F482819381B0E02C
:10182000A0E08093070190930801A0930901B09371
:101830000A01ECCF803209F057C067E070E08BE01E
:1018400091E00E946C0780912E03EEEFFAE0811187
:1018500002C0E0E0F8E080910B0190910C01A091B2
:101860000D01B0910E01803B9440A105B105B9F482
:101870008091120180FD13C0EE3F8AE0F80721F548
:1018800087E797E79183808388E19BE00FB6F89420
:10189000A895809360000FBE90936000B7CF0FB6FD
:1018A000F894A89580916000886180936000109200
:1018B00060000FBEA895EE3F2AE0F20761F4109297
:1018C000FF0A1092FE0AA2CF808191819093FF0AB5
:1018D0008093FE0AD5CF8091FE0A9091FF0A9183F2
:1018E000808394CF80E00895823209F08FCF828187
:1018F00080931201A8CF2FEF3FEFFC01358724879B
:101900000895EEEDF2E01382128288EE93E0A0E0FB
:10191000B0E084839583A683B78382E591E09183C9
:1019200080838FEF9FEF9587848708951F921FB65E
:101930001F9211242F933F938F939F93AF93BF9345
:101940008091300390913103A0913203B091330321
:1019500030912F0323E0230F2D3750F50196A11D61
:10196000B11D20932F038093300390933103A093F4
:101970003203B09333038091340390913503A091E7
:101980003603B09137030196A11DB11D8093340336
:1019900090933503A0933603B0933703BF91AF9173
:1019A0009F918F913F912F911F901FBE1F9018956F
:1019B00026E8230F0296A11DB11DD3CFCF93DF934D
:1019C00000D000D0CDB7DEB73FB7F8948091340394
:1019D00090913503A0913603B091370326B5A89BAB
:1019E00005C02F3F19F00196A11DB11D3FBFBA2FB1
:1019F000A92F982F8827820F911DA11DB11D9C0131
:101A0000AD0162E0220F331F441F551F6A95D1F7C5
:101A1000CA01B9010F900F900F900F90DF91CF91F5
:101A200008958F929F92AF92BF92CF92DF92EF92E2
:101A3000FF92CF93DF9300D000D0CDB7DEB76B011C
:101A40007C010E94DE0C4B015C01C114D104E10455
:101A5000F104F9F00E94B90D0E94DE0CDC01CB010B
:101A600088199909AA09BB09883E9340A105B105C7
:101A700060F321E0C21AD108E108F10888EE880E6F
:101A800083E0981EA11CB11CC114D104E104F1042F
:101A900019F70F900F900F900F90DF91CF91FF905B
:101AA000EF90DF90CF90BF90AF909F908F90089570
:101AB0008230910538F0880F991F880F991F05977C
:101AC0000197F1F70895789484B5826084BD84B558
:101AD000816084BD85B5826085BD85B5816085BD29
:101AE000EEE6F0E0808181608083E1E8F0E0108242
:101AF000808182608083808181608083E0E8F0E083
:101B0000808181608083E1E9F0E080818260808370
:101B1000808181608083E0E9F0E080818160808362
:101B2000E1ECF0E08081846080838081826080834A
:101B3000808181608083E3ECF0E08081816080833C
:101B4000E0ECF0E0808182608083E2ECF0E0808174
:101B500081608083EAE7F0E0808184608083808117
:101B600082608083808181608083808180688083BF
:101B70000895089581508F30C0F5E82FF0E0E45DBE
:101B8000F14F0C94240E809180008F778093800019
:101B90000895809180008F7DF9CF80918000877FAC
:101BA000F5CF84B58F7784BD089584B58F7DFBCF45
:101BB000809190008F77809390000895809190009D
:101BC0008F7DF9CF80919000877FF5CF8091C00005
:101BD0008F778093C00008958091C0008F7DF9CFEA
:101BE0008091C200877F8093C20008951F93CF9396
:101BF000DF93162F282F30E0F901E75EFE4F849126
:101C0000F901E95CFE4FD491F901EA5AFE4FC49103
:101C1000CC23A1F081110E94BA0DEC2FF0E0EE0F61
:101C2000FF1FEB58FE4FA591B4918FB7F894EC913C
:101C3000111108C0D095DE23DC938FBFDF91CF91C7
:101C40001F910895DE2BF8CFEE0FFF1F0590F49142
:101C5000E02D0994F894FFCFD10DD50DC30DC90D1A
:101C6000CD0DF50DF50DF50DD80DDE0DE20DE60DE2
:061C7000EC0DF50DF00D76
:101C760000C18081000000FFFFFFFF00E1000000BF
:101C86000000007573622D6C63640D0A5265616411
:101C96007900000040001400540000000000BE025D
:101CA600ED029102BD0294029B02AE02000000000A
:101CB600190A3005BB09F9098E09A7099909000017
:101CC60000008A0BD60BB10BB60BB90BC90BA00BD8
:00000001FF
